{
  "contractName": "EtherSender",
  "abi": [
    {
      "inputs": [],
      "stateMutability": "payable",
      "type": "constructor"
    },
    {
      "stateMutability": "payable",
      "type": "receive"
    },
    {
      "inputs": [
        {
          "internalType": "address payable",
          "name": "_to",
          "type": "address"
        }
      ],
      "name": "sendViaTransfer",
      "outputs": [],
      "stateMutability": "payable",
      "type": "function"
    },
    {
      "inputs": [
        {
          "internalType": "address payable",
          "name": "_to",
          "type": "address"
        }
      ],
      "name": "sendViaSend",
      "outputs": [],
      "stateMutability": "payable",
      "type": "function"
    },
    {
      "inputs": [
        {
          "internalType": "address payable",
          "name": "_to",
          "type": "address"
        }
      ],
      "name": "sendViaCall",
      "outputs": [],
      "stateMutability": "payable",
      "type": "function"
    }
  ],
  "bytecode": "0x6080604052610407806100136000396000f3fe6080604052600436106100385760003560e01c8063636e082b1461004457806374be480614610060578063830c29ae1461007c5761003f565b3661003f57005b600080fd5b61005e60048036038101906100599190610275565b610098565b005b61007a60048036038101906100759190610275565b6100e3565b005b61009660048036038101906100919190610275565b610161565b005b8073ffffffffffffffffffffffffffffffffffffffff166108fc60019081150290604051600060405180830381858888f193505050501580156100df573d6000803e3d6000fd5b5050565b60008173ffffffffffffffffffffffffffffffffffffffff166108fc60019081150290604051600060405180830381858888f1935050505090508061015d576040517f08c379a0000000000000000000000000000000000000000000000000000000008152600401610154906102ff565b60405180910390fd5b5050565b60008173ffffffffffffffffffffffffffffffffffffffff16600160405161018890610350565b60006040518083038185875af1925050503d80600081146101c5576040519150601f19603f3d011682016040523d82523d6000602084013e6101ca565b606091505b505090508061020e576040517f08c379a0000000000000000000000000000000000000000000000000000000008152600401610205906103b1565b60405180910390fd5b5050565b600080fd5b600073ffffffffffffffffffffffffffffffffffffffff82169050919050565b600061024282610217565b9050919050565b61025281610237565b811461025d57600080fd5b50565b60008135905061026f81610249565b92915050565b60006020828403121561028b5761028a610212565b5b600061029984828501610260565b91505092915050565b600082825260208201905092915050565b7f73656e64206661696c6564000000000000000000000000000000000000000000600082015250565b60006102e9600b836102a2565b91506102f4826102b3565b602082019050919050565b60006020820190508181036000830152610318816102dc565b9050919050565b600081905092915050565b50565b600061033a60008361031f565b91506103458261032a565b600082019050919050565b600061035b8261032d565b9150819050919050565b7f63616c6c206661696c6564000000000000000000000000000000000000000000600082015250565b600061039b600b836102a2565b91506103a682610365565b602082019050919050565b600060208201905081810360008301526103ca8161038e565b905091905056fea2646970667358221220f730470554be18e4e6bcca96deee05df07b40c819cc17c3e289936d4ee39055f64736f6c634300080e0033",
  "immutableReferences": {},
  "source": "pragma solidity ^0.8.10;\r\n\r\ncontract EtherSender {\r\n    constructor() payable {}\r\n\r\n    receive() external payable {}\r\n\r\n    function sendViaTransfer(address payable _to) external payable {\r\n        _to.transfer(1);\r\n    }\r\n\r\n    function sendViaSend(address payable _to) external payable {\r\n        bool sent = _to.send(1);\r\n        require(sent, \"send failed\");\r\n    }\r\n\r\n    function sendViaCall(address payable _to) external payable {\r\n        (bool success, ) = _to.call{value: 1}(\"\");\r\n        require(success, \"call failed\");\r\n    }\r\n}\r\n\r\ncontract EtherReceiver {\r\n    event Log(uint256 amount, uint256 gas);\r\n\r\n    receive() external payable {\r\n        emit Log(msg.value, gasleft());\r\n    }\r\n}\r\n",
  "sourcePath": "E:\\vscode\\web3\\voting\\ethereum\\contracts\\Donation.sol",
  "compiler": {
    "name": "solc",
    "version": "0.8.14+commit.80d49f37.Emscripten.clang"
  },
  "schemaVersion": "3.4.7",
  "updatedAt": "2022-05-22T10:04:07.355Z",
  "devdoc": {
    "kind": "dev",
    "methods": {},
    "version": 1
  },
  "userdoc": {
    "kind": "user",
    "methods": {},
    "version": 1
  }
}