{
  "contractName": "Voting",
  "abi": [
    {
      "anonymous": false,
      "inputs": [
        {
          "indexed": false,
          "internalType": "string",
          "name": "name",
          "type": "string"
        },
        {
          "indexed": false,
          "internalType": "uint256",
          "name": "voteCount",
          "type": "uint256"
        }
      ],
      "name": "ElectionResult",
      "type": "event"
    },
    {
      "inputs": [],
      "name": "auctionEnd",
      "outputs": [
        {
          "internalType": "uint256",
          "name": "",
          "type": "uint256"
        }
      ],
      "stateMutability": "view",
      "type": "function"
    },
    {
      "inputs": [
        {
          "internalType": "uint256",
          "name": "",
          "type": "uint256"
        }
      ],
      "name": "candidates",
      "outputs": [
        {
          "internalType": "string",
          "name": "name",
          "type": "string"
        },
        {
          "internalType": "uint256",
          "name": "voteCount",
          "type": "uint256"
        }
      ],
      "stateMutability": "view",
      "type": "function"
    },
    {
      "inputs": [],
      "name": "name",
      "outputs": [
        {
          "internalType": "string",
          "name": "",
          "type": "string"
        }
      ],
      "stateMutability": "view",
      "type": "function"
    },
    {
      "inputs": [],
      "name": "owner",
      "outputs": [
        {
          "internalType": "address",
          "name": "",
          "type": "address"
        }
      ],
      "stateMutability": "view",
      "type": "function"
    },
    {
      "inputs": [
        {
          "internalType": "address",
          "name": "",
          "type": "address"
        }
      ],
      "name": "voters",
      "outputs": [
        {
          "internalType": "bool",
          "name": "voted",
          "type": "bool"
        },
        {
          "internalType": "uint256",
          "name": "voteIndex",
          "type": "uint256"
        },
        {
          "internalType": "uint256",
          "name": "weight",
          "type": "uint256"
        }
      ],
      "stateMutability": "view",
      "type": "function"
    },
    {
      "inputs": [
        {
          "internalType": "string",
          "name": "partyId",
          "type": "string"
        }
      ],
      "name": "addParty",
      "outputs": [],
      "stateMutability": "nonpayable",
      "type": "function"
    },
    {
      "inputs": [
        {
          "internalType": "address",
          "name": "voter",
          "type": "address"
        }
      ],
      "name": "authorize",
      "outputs": [],
      "stateMutability": "nonpayable",
      "type": "function"
    },
    {
      "inputs": [
        {
          "internalType": "uint256",
          "name": "voteIndex",
          "type": "uint256"
        }
      ],
      "name": "vote",
      "outputs": [],
      "stateMutability": "nonpayable",
      "type": "function"
    },
    {
      "inputs": [],
      "name": "end",
      "outputs": [],
      "stateMutability": "nonpayable",
      "type": "function"
    }
  ],
  "bytecode": "0x608060405234801561001057600080fd5b50610db7806100206000396000f3fe608060405234801561001057600080fd5b50600436106100935760003560e01c80635df3e271116100665780635df3e271146101215780638da5cb5b1461013d578063a3ec138d1461015b578063b6a5d7de1461018d578063efbe1c1c146101a957610093565b80630121b93f1461009857806306fdde03146100b45780632a24f46c146100d25780633477ee2e146100f0575b600080fd5b6100b260048036038101906100ad9190610799565b6101b3565b005b6100bc6102ef565b6040516100c9919061085f565b60405180910390f35b6100da61037d565b6040516100e79190610890565b60405180910390f35b61010a60048036038101906101059190610799565b610383565b6040516101189291906108ab565b60405180910390f35b61013b60048036038101906101369190610a10565b61043f565b005b6101456104ac565b6040516101529190610a9a565b60405180910390f35b61017560048036038101906101709190610ae1565b6104d0565b60405161018493929190610b29565b60405180910390f35b6101a760048036038101906101a29190610ae1565b610507565b005b6101b1610604565b005b600260003373ffffffffffffffffffffffffffffffffffffffff1673ffffffffffffffffffffffffffffffffffffffff16815260200190815260200160002060000160009054906101000a900460ff161561020d57600080fd5b6001600260003373ffffffffffffffffffffffffffffffffffffffff1673ffffffffffffffffffffffffffffffffffffffff16815260200190815260200160002060000160006101000a81548160ff02191690831515021790555080600260003373ffffffffffffffffffffffffffffffffffffffff1673ffffffffffffffffffffffffffffffffffffffff168152602001908152602001600020600101819055506001600382815481106102c5576102c4610b60565b5b906000526020600020906002020160010160008282546102e59190610bbe565b9250508190555050565b600180546102fc90610c43565b80601f016020809104026020016040519081016040528092919081815260200182805461032890610c43565b80156103755780601f1061034a57610100808354040283529160200191610375565b820191906000526020600020905b81548152906001019060200180831161035857829003601f168201915b505050505081565b60045481565b6003818154811061039357600080fd5b90600052602060002090600202016000915090508060000180546103b690610c43565b80601f01602080910402602001604051908101604052809291908181526020018280546103e290610c43565b801561042f5780601f106104045761010080835404028352916020019161042f565b820191906000526020600020905b81548152906001019060200180831161041257829003601f168201915b5050505050908060010154905082565b6003604051806040016040528083815260200160008152509080600181540180825580915050600190039060005260206000209060020201600090919091909150600082015181600001908051906020019061049c9291906106ac565b5060208201518160010155505050565b60008054906101000a900473ffffffffffffffffffffffffffffffffffffffff1681565b60026020528060005260406000206000915090508060000160009054906101000a900460ff16908060010154908060020154905083565b60008054906101000a900473ffffffffffffffffffffffffffffffffffffffff1673ffffffffffffffffffffffffffffffffffffffff163373ffffffffffffffffffffffffffffffffffffffff161461055f57600080fd5b600260008273ffffffffffffffffffffffffffffffffffffffff1673ffffffffffffffffffffffffffffffffffffffff16815260200190815260200160002060000160009054906101000a900460ff16156105b957600080fd5b6001600260008373ffffffffffffffffffffffffffffffffffffffff1673ffffffffffffffffffffffffffffffffffffffff1681526020019081526020016000206002018190555050565b60005b6003805490508110156106a9577f156b5ffaa1a96772b4d324b6a0492ba5c51abe8a2818c38a0d409faddb63578c6003828154811061064957610648610b60565b5b90600052602060002090600202016000016003838154811061066e5761066d610b60565b5b90600052602060002090600202016001015460405161068e929190610d09565b60405180910390a180806106a190610d39565b915050610607565b50565b8280546106b890610c43565b90600052602060002090601f0160209004810192826106da5760008555610721565b82601f106106f357805160ff1916838001178555610721565b82800160010185558215610721579182015b82811115610720578251825591602001919060010190610705565b5b50905061072e9190610732565b5090565b5b8082111561074b576000816000905550600101610733565b5090565b6000604051905090565b600080fd5b600080fd5b6000819050919050565b61077681610763565b811461078157600080fd5b50565b6000813590506107938161076d565b92915050565b6000602082840312156107af576107ae610759565b5b60006107bd84828501610784565b91505092915050565b600081519050919050565b600082825260208201905092915050565b60005b838110156108005780820151818401526020810190506107e5565b8381111561080f576000848401525b50505050565b6000601f19601f8301169050919050565b6000610831826107c6565b61083b81856107d1565b935061084b8185602086016107e2565b61085481610815565b840191505092915050565b600060208201905081810360008301526108798184610826565b905092915050565b61088a81610763565b82525050565b60006020820190506108a56000830184610881565b92915050565b600060408201905081810360008301526108c58185610826565b90506108d46020830184610881565b9392505050565b600080fd5b600080fd5b7f4e487b7100000000000000000000000000000000000000000000000000000000600052604160045260246000fd5b61091d82610815565b810181811067ffffffffffffffff8211171561093c5761093b6108e5565b5b80604052505050565b600061094f61074f565b905061095b8282610914565b919050565b600067ffffffffffffffff82111561097b5761097a6108e5565b5b61098482610815565b9050602081019050919050565b82818337600083830152505050565b60006109b36109ae84610960565b610945565b9050828152602081018484840111156109cf576109ce6108e0565b5b6109da848285610991565b509392505050565b600082601f8301126109f7576109f66108db565b5b8135610a078482602086016109a0565b91505092915050565b600060208284031215610a2657610a25610759565b5b600082013567ffffffffffffffff811115610a4457610a4361075e565b5b610a50848285016109e2565b91505092915050565b600073ffffffffffffffffffffffffffffffffffffffff82169050919050565b6000610a8482610a59565b9050919050565b610a9481610a79565b82525050565b6000602082019050610aaf6000830184610a8b565b92915050565b610abe81610a79565b8114610ac957600080fd5b50565b600081359050610adb81610ab5565b92915050565b600060208284031215610af757610af6610759565b5b6000610b0584828501610acc565b91505092915050565b60008115159050919050565b610b2381610b0e565b82525050565b6000606082019050610b3e6000830186610b1a565b610b4b6020830185610881565b610b586040830184610881565b949350505050565b7f4e487b7100000000000000000000000000000000000000000000000000000000600052603260045260246000fd5b7f4e487b7100000000000000000000000000000000000000000000000000000000600052601160045260246000fd5b6000610bc982610763565b9150610bd483610763565b9250827fffffffffffffffffffffffffffffffffffffffffffffffffffffffffffffffff03821115610c0957610c08610b8f565b5b828201905092915050565b7f4e487b7100000000000000000000000000000000000000000000000000000000600052602260045260246000fd5b60006002820490506001821680610c5b57607f821691505b602082108103610c6e57610c6d610c14565b5b50919050565b60008190508160005260206000209050919050565b60008154610c9681610c43565b610ca081866107d1565b94506001821660008114610cbb5760018114610ccd57610d00565b60ff1983168652602086019350610d00565b610cd685610c74565b60005b83811015610cf857815481890152600182019150602081019050610cd9565b808801955050505b50505092915050565b60006040820190508181036000830152610d238185610c89565b9050610d326020830184610881565b9392505050565b6000610d4482610763565b91507fffffffffffffffffffffffffffffffffffffffffffffffffffffffffffffffff8203610d7657610d75610b8f565b5b60018201905091905056fea2646970667358221220e5c19805b0f46869dcc055d6bd26083eab349c8a427c25977b1ebe3a43b8340964736f6c634300080e0033",
  "immutableReferences": {},
  "source": "pragma solidity ^0.8.10;\r\n\r\ncontract Voting {\r\n    struct Candidate {\r\n        string name;\r\n        uint256 voteCount;\r\n    }\r\n\r\n    struct Voter {\r\n        bool voted;\r\n        uint256 voteIndex;\r\n        uint256 weight;\r\n    }\r\n\r\n    address public owner;\r\n    string public name;\r\n    mapping(address => Voter) public voters;\r\n\r\n    Candidate[] public candidates;\r\n    uint256 public auctionEnd;\r\n\r\n    event ElectionResult(string name, uint256 voteCount);\r\n\r\n    // function initElection(\r\n    //   string memory name,\r\n    //   string memory candidatel,\r\n    //   string memory candidate2\r\n    // ) public {\r\n    //   owner = msg.sender;\r\n    //   name = name;\r\n    //   // auctionEnd = now + (durationMinutes * 1 minutes);\r\n\r\n    //   candidates.push(Candidate(candidatel, 0));\r\n    //   candidates.push(Candidate(candidate2, 0));\r\n    // }\r\n\r\n    function addParty(string memory partyId) public {\r\n        candidates.push(Candidate(partyId, 0));\r\n    }\r\n\r\n    function authorize(address voter) public {\r\n        require(msg.sender == owner);\r\n        require(!voters[voter].voted);\r\n\r\n        voters[voter].weight = 1;\r\n    }\r\n\r\n    function vote(uint256 voteIndex) public {\r\n        // require(now < auctionEnd);\r\n        require(!voters[msg.sender].voted);\r\n\r\n        voters[msg.sender].voted = true;\r\n        voters[msg.sender].voteIndex = voteIndex;\r\n        candidates[voteIndex].voteCount += 1;\r\n    }\r\n\r\n    function end() public {\r\n        // require(msg.sender == owner);\r\n        // require(now >= auctionEnd);\r\n\r\n        for (uint256 i = 0; i < candidates.length; i++) {\r\n            emit ElectionResult(candidates[i].name, candidates[i].voteCount);\r\n        }\r\n    }\r\n}\r\n",
  "sourcePath": "E:\\vscode\\web3\\voting\\ethereum\\contracts\\Voting.sol",
  "compiler": {
    "name": "solc",
    "version": "0.8.14+commit.80d49f37.Emscripten.clang"
  },
  "schemaVersion": "3.4.7",
  "updatedAt": "2022-05-22T10:04:07.361Z",
  "devdoc": {
    "kind": "dev",
    "methods": {},
    "version": 1
  },
  "userdoc": {
    "kind": "user",
    "methods": {},
    "version": 1
  }
}