{
  "contractName": "Voting",
  "abi": [
    {
      "anonymous": false,
      "inputs": [
        {
          "indexed": false,
          "internalType": "string",
          "name": "name",
          "type": "string"
        },
        {
          "indexed": false,
          "internalType": "uint256",
          "name": "voteCount",
          "type": "uint256"
        }
      ],
      "name": "ElectionResult",
      "type": "event"
    },
    {
      "inputs": [
        {
          "internalType": "uint256",
          "name": "",
          "type": "uint256"
        }
      ],
      "name": "candidates",
      "outputs": [
        {
          "internalType": "string",
          "name": "name",
          "type": "string"
        },
        {
          "internalType": "uint256",
          "name": "voteCount",
          "type": "uint256"
        }
      ],
      "stateMutability": "view",
      "type": "function",
      "constant": true
    },
    {
      "inputs": [
        {
          "internalType": "string",
          "name": "partyId",
          "type": "string"
        }
      ],
      "name": "addParty",
      "outputs": [],
      "stateMutability": "nonpayable",
      "type": "function"
    },
    {
      "inputs": [
        {
          "internalType": "uint256",
          "name": "voteIndex",
          "type": "uint256"
        }
      ],
      "name": "vote",
      "outputs": [],
      "stateMutability": "nonpayable",
      "type": "function"
    },
    {
      "inputs": [],
      "name": "end",
      "outputs": [],
      "stateMutability": "nonpayable",
      "type": "function"
    },
    {
      "inputs": [],
      "name": "getAllData",
      "outputs": [
        {
          "components": [
            {
              "internalType": "string",
              "name": "name",
              "type": "string"
            },
            {
              "internalType": "uint256",
              "name": "voteCount",
              "type": "uint256"
            }
          ],
          "internalType": "struct Voting.Candidate[]",
          "name": "",
          "type": "tuple[]"
        }
      ],
      "stateMutability": "view",
      "type": "function",
      "constant": true
    },
    {
      "inputs": [],
      "name": "getLength",
      "outputs": [
        {
          "internalType": "uint256",
          "name": "",
          "type": "uint256"
        }
      ],
      "stateMutability": "view",
      "type": "function",
      "constant": true
    },
    {
      "inputs": [
        {
          "internalType": "uint256",
          "name": "x",
          "type": "uint256"
        }
      ],
      "name": "set",
      "outputs": [],
      "stateMutability": "nonpayable",
      "type": "function"
    },
    {
      "inputs": [],
      "name": "get",
      "outputs": [
        {
          "internalType": "uint256",
          "name": "",
          "type": "uint256"
        }
      ],
      "stateMutability": "view",
      "type": "function",
      "constant": true
    }
  ],
  "bytecode": "0x608060405234801561001057600080fd5b50610c92806100206000396000f3fe608060405234801561001057600080fd5b50600436106100885760003560e01c806360fe47b11161005b57806360fe47b1146101145780636d4ce63c14610130578063be1c766b1461014e578063efbe1c1c1461016c57610088565b80630121b93f1461008d5780632d10fa28146100a95780633477ee2e146100c75780635df3e271146100f8575b600080fd5b6100a760048036038101906100a29190610623565b610176565b005b6100b16101b6565b6040516100be91906107f7565b60405180910390f35b6100e160048036038101906100dc9190610623565b61032b565b6040516100ef929190610872565b60405180910390f35b610112600480360381019061010d91906109d7565b6103e7565b005b61012e60048036038101906101299190610623565b610454565b005b61013861045e565b6040516101459190610a20565b60405180910390f35b610156610468565b6040516101639190610a20565b60405180910390f35b610174610474565b005b60016000828154811061018c5761018b610a3b565b5b906000526020600020906002020160010160008282546101ac9190610a99565b9250508190555050565b60606000808054905067ffffffffffffffff8111156101d8576101d76108ac565b5b60405190808252806020026020018201604052801561021157816020015b6101fe61051c565b8152602001906001900390816101f65790505b50905060005b60008054905081101561032357600080828154811061023957610238610a3b565b5b906000526020600020906002020190508060405180604001604052908160008201805461026590610b1e565b80601f016020809104026020016040519081016040528092919081815260200182805461029190610b1e565b80156102de5780601f106102b3576101008083540402835291602001916102de565b820191906000526020600020905b8154815290600101906020018083116102c157829003601f168201915b5050505050815260200160018201548152505083838151811061030457610303610a3b565b5b602002602001018190525050808061031b90610b4f565b915050610217565b508091505090565b6000818154811061033b57600080fd5b906000526020600020906002020160009150905080600001805461035e90610b1e565b80601f016020809104026020016040519081016040528092919081815260200182805461038a90610b1e565b80156103d75780601f106103ac576101008083540402835291602001916103d7565b820191906000526020600020905b8154815290600101906020018083116103ba57829003601f168201915b5050505050908060010154905082565b60006040518060400160405280838152602001600081525090806001815401808255809150506001900390600052602060002090600202016000909190919091506000820151816000019080519060200190610444929190610536565b5060208201518160010155505050565b8060018190555050565b6000600154905090565b60008080549050905090565b60005b600080549050811015610519577f156b5ffaa1a96772b4d324b6a0492ba5c51abe8a2818c38a0d409faddb63578c600082815481106104b9576104b8610a3b565b5b9060005260206000209060020201600001600083815481106104de576104dd610a3b565b5b9060005260206000209060020201600101546040516104fe929190610c2c565b60405180910390a1808061051190610b4f565b915050610477565b50565b604051806040016040528060608152602001600081525090565b82805461054290610b1e565b90600052602060002090601f01602090048101928261056457600085556105ab565b82601f1061057d57805160ff19168380011785556105ab565b828001600101855582156105ab579182015b828111156105aa57825182559160200191906001019061058f565b5b5090506105b891906105bc565b5090565b5b808211156105d55760008160009055506001016105bd565b5090565b6000604051905090565b600080fd5b600080fd5b6000819050919050565b610600816105ed565b811461060b57600080fd5b50565b60008135905061061d816105f7565b92915050565b600060208284031215610639576106386105e3565b5b60006106478482850161060e565b91505092915050565b600081519050919050565b600082825260208201905092915050565b6000819050602082019050919050565b600081519050919050565b600082825260208201905092915050565b60005b838110156106b657808201518184015260208101905061069b565b838111156106c5576000848401525b50505050565b6000601f19601f8301169050919050565b60006106e78261067c565b6106f18185610687565b9350610701818560208601610698565b61070a816106cb565b840191505092915050565b61071e816105ed565b82525050565b6000604083016000830151848203600086015261074182826106dc565b91505060208301516107566020860182610715565b508091505092915050565b600061076d8383610724565b905092915050565b6000602082019050919050565b600061078d82610650565b610797818561065b565b9350836020820285016107a98561066c565b8060005b858110156107e557848403895281516107c68582610761565b94506107d183610775565b925060208a019950506001810190506107ad565b50829750879550505050505092915050565b600060208201905081810360008301526108118184610782565b905092915050565b600082825260208201905092915050565b60006108358261067c565b61083f8185610819565b935061084f818560208601610698565b610858816106cb565b840191505092915050565b61086c816105ed565b82525050565b6000604082019050818103600083015261088c818561082a565b905061089b6020830184610863565b9392505050565b600080fd5b600080fd5b7f4e487b7100000000000000000000000000000000000000000000000000000000600052604160045260246000fd5b6108e4826106cb565b810181811067ffffffffffffffff82111715610903576109026108ac565b5b80604052505050565b60006109166105d9565b905061092282826108db565b919050565b600067ffffffffffffffff821115610942576109416108ac565b5b61094b826106cb565b9050602081019050919050565b82818337600083830152505050565b600061097a61097584610927565b61090c565b905082815260208101848484011115610996576109956108a7565b5b6109a1848285610958565b509392505050565b600082601f8301126109be576109bd6108a2565b5b81356109ce848260208601610967565b91505092915050565b6000602082840312156109ed576109ec6105e3565b5b600082013567ffffffffffffffff811115610a0b57610a0a6105e8565b5b610a17848285016109a9565b91505092915050565b6000602082019050610a356000830184610863565b92915050565b7f4e487b7100000000000000000000000000000000000000000000000000000000600052603260045260246000fd5b7f4e487b7100000000000000000000000000000000000000000000000000000000600052601160045260246000fd5b6000610aa4826105ed565b9150610aaf836105ed565b9250827fffffffffffffffffffffffffffffffffffffffffffffffffffffffffffffffff03821115610ae457610ae3610a6a565b5b828201905092915050565b7f4e487b7100000000000000000000000000000000000000000000000000000000600052602260045260246000fd5b60006002820490506001821680610b3657607f821691505b602082108103610b4957610b48610aef565b5b50919050565b6000610b5a826105ed565b91507fffffffffffffffffffffffffffffffffffffffffffffffffffffffffffffffff8203610b8c57610b8b610a6a565b5b600182019050919050565b60008190508160005260206000209050919050565b60008154610bb981610b1e565b610bc38186610819565b94506001821660008114610bde5760018114610bf057610c23565b60ff1983168652602086019350610c23565b610bf985610b97565b60005b83811015610c1b57815481890152600182019150602081019050610bfc565b808801955050505b50505092915050565b60006040820190508181036000830152610c468185610bac565b9050610c556020830184610863565b939250505056fea2646970667358221220a98572f64e17c6e2bd264e3d192d86d6c3b57fad3ac5019ef361f4bfbe14d1f664736f6c634300080e0033",
  "immutableReferences": {},
  "source": "// SPDX-License-Identifier: MIT\r\npragma solidity >=0.4.21 <8.7.0;\r\n\r\n// pragma experimental ABIEncoderV2;\r\n\r\ncontract Voting {\r\n    struct Candidate {\r\n        string name;\r\n        uint256 voteCount;\r\n    }\r\n\r\n    // struct Voter {\r\n    //     bool voted;\r\n    //     uint256 voteIndex;\r\n    //     uint256 weight;\r\n    // }\r\n\r\n    // address public owner;\r\n    // string public name;\r\n    // mapping(address => Voter) public voters;\r\n\r\n    Candidate[] public candidates;\r\n    // uint256 public auctionEnd;\r\n\r\n    event ElectionResult(string name, uint256 voteCount);\r\n\r\n    // function initElection(\r\n    //   string memory name,\r\n    //   string memory candidatel,\r\n    //   string memory candidate2\r\n    // ) public {\r\n    //   owner = msg.sender;\r\n    //   name = name;\r\n    //   // auctionEnd = now + (durationMinutes * 1 minutes);\r\n\r\n    //   candidates.push(Candidate(candidatel, 0));\r\n    //   candidates.push(Candidate(candidate2, 0));\r\n    // }\r\n\r\n    function addParty(string memory partyId) public {\r\n        candidates.push(Candidate(partyId, 0));\r\n    }\r\n\r\n    // function authorize(address voter) public {\r\n    //     require(msg.sender == owner);\r\n    //     require(!voters[voter].voted);\r\n\r\n    //     voters[voter].weight = 1;\r\n    // }\r\n\r\n    function vote(uint256 voteIndex) public {\r\n        // require(now < auctionEnd);\r\n        // require(!voters[msg.sender].voted);\r\n\r\n        // voters[msg.sender].voted = true;\r\n        // voters[msg.sender].voteIndex = voteIndex;\r\n        candidates[voteIndex].voteCount += 1;\r\n    }\r\n\r\n    function end() public {\r\n        // require(msg.sender == owner);\r\n        // require(now >= auctionEnd);\r\n\r\n        for (uint256 i = 0; i < candidates.length; i++) {\r\n            emit ElectionResult(candidates[i].name, candidates[i].voteCount);\r\n        }\r\n    }\r\n\r\n    function getAllData() public view returns (Candidate[] memory) {\r\n        Candidate[] memory id = new Candidate[](candidates.length);\r\n        for (uint256 i = 0; i < candidates.length; i++) {\r\n            Candidate storage can = candidates[i];\r\n            id[i] = can;\r\n        }\r\n        return id;\r\n    }\r\n\r\n    function getLength() public view returns (uint256) {\r\n        return candidates.length;\r\n    }\r\n\r\n    uint256 storedData;\r\n\r\n    function set(uint256 x) public {\r\n        storedData = x;\r\n    }\r\n\r\n    function get() public view returns (uint256) {\r\n        return storedData;\r\n    }\r\n}\r\n",
  "sourcePath": "E:\\vscode\\web3\\voting\\contracts\\Voting.sol",
  "compiler": {
    "name": "solc",
    "version": "0.8.14+commit.80d49f37.Emscripten.clang"
  },
  "schemaVersion": "3.4.7",
  "updatedAt": "2022-06-07T21:23:25.494Z",
  "networkType": "ethereum",
  "devdoc": {
    "kind": "dev",
    "methods": {},
    "version": 1
  },
  "userdoc": {
    "kind": "user",
    "methods": {},
    "version": 1
  }
}